{
  "contractName": "MetaCoin",
  "abi": [
    {
      "inputs": [],
      "payable": false,
      "stateMutability": "nonpayable",
      "type": "constructor"
    },
    {
      "constant": false,
      "inputs": [
        {
          "name": "purchaseUuid",
          "type": "string"
        },
        {
          "name": "deviceWalletAddress",
          "type": "address"
        }
      ],
      "name": "addPurchase",
      "outputs": [],
      "payable": false,
      "stateMutability": "nonpayable",
      "type": "function"
    },
    {
      "constant": false,
      "inputs": [
        {
          "name": "deviceWalletAddress",
          "type": "address"
        }
      ],
      "name": "addDevice",
      "outputs": [],
      "payable": false,
      "stateMutability": "nonpayable",
      "type": "function"
    },
    {
      "constant": true,
      "inputs": [
        {
          "name": "addr",
          "type": "address"
        }
      ],
      "name": "isBroadcastable",
      "outputs": [
        {
          "name": "",
          "type": "bool"
        }
      ],
      "payable": false,
      "stateMutability": "view",
      "type": "function"
    },
    {
      "constant": true,
      "inputs": [
        {
          "name": "purchaseUuid",
          "type": "string"
        },
        {
          "name": "walletAddress",
          "type": "address"
        }
      ],
      "name": "verifyPurchase",
      "outputs": [
        {
          "name": "",
          "type": "bool"
        }
      ],
      "payable": false,
      "stateMutability": "view",
      "type": "function"
    }
  ],
  "bytecode": "0x608060405234801561001057600080fd5b50336000806101000a81548173ffffffffffffffffffffffffffffffffffffffff021916908373ffffffffffffffffffffffffffffffffffffffff1602179055506103f2806100606000396000f300608060405260043610610062576000357c0100000000000000000000000000000000000000000000000000000000900463ffffffff168063473f5f79146100675780634818983f146101085780637d58205514610163578063b111cb84146101ec575b600080fd5b34801561007357600080fd5b506100ee600480360381019080803590602001908201803590602001908080601f0160208091040260200160405190810160405280939291908181526020018383808284378201915050505050509192919290803573ffffffffffffffffffffffffffffffffffffffff16906020019092919050505061022f565b604051808215151515815260200191505060405180910390f35b34801561011457600080fd5b50610149600480360381019080803573ffffffffffffffffffffffffffffffffffffffff169060200190929190505050610307565b604051808215151515815260200191505060405180910390f35b34801561016f57600080fd5b506101ea600480360381019080803590602001908201803590602001908080601f0160208091040260200160405190810160405280939291908181526020018383808284378201915050505050509192919290803573ffffffffffffffffffffffffffffffffffffffff169060200190929190505050610312565b005b3480156101f857600080fd5b5061022d600480360381019080803573ffffffffffffffffffffffffffffffffffffffff1690602001909291905050506103c3565b005b60008173ffffffffffffffffffffffffffffffffffffffff166001846040518082805190602001908083835b602083101515610280578051825260208201915060208101905060208303925061025b565b6001836020036101000a038019825116818451168082178552505050505050905001915050908152602001604051809103902060000160009054906101000a900473ffffffffffffffffffffffffffffffffffffffff1673ffffffffffffffffffffffffffffffffffffffff1614156102fc5760019050610301565b600090505b92915050565b600060019050919050565b806001836040518082805190602001908083835b60208310151561034b5780518252602082019150602081019050602083039250610326565b6001836020036101000a038019825116818451168082178552505050505050905001915050908152602001604051809103902060000160006101000a81548173ffffffffffffffffffffffffffffffffffffffff021916908373ffffffffffffffffffffffffffffffffffffffff1602179055505050565b505600a165627a7a72305820c62961fc8fac44f967d51383be48b9f3830850bfcf58731af168d6fa4fb98db80029",
  "source": "pragma solidity ^0.4.18;\n\nimport \"./ConvertLib.sol\";\n\n// This is just a simple example of a coin-like contract.\n// It is not standards compatible and cannot be expected to talk to other\n// coin/token contracts. If you want to create a standards-compliant\n// token, see: https://github.com/ConsenSys/Tokens. Cheers!\n\ncontract MetaCoin {\n\t//mapping (address => uint) balances;\n\n\t//event Transfer(address indexed _from, address indexed _to, uint256 _value);\n\n\t//\tコントラクトを作成したアカウントのアドレス\n\taddress owner;\n\n\t/*\n\t\t動画を許可しているかどうか\n\t\tkey: ユーザのウォレットアドレス＋ラズパイのUUID\n\t\tvalue: アクセスできるかどうか\n\t*/\n\tstruct BroadcastStatus{\n\t\tbool owner; // dmmがブロードキャストを許可している\n\t\tbool user; // userがブロードキャストを許可している\n\t}\n\n\tstruct Purchase{\n\t\taddress deviceWalletAddress; \n\t}\n\n\n\t/*\n\t\t購入履歴データ\n\t\t購入UUIDを紐づける\n\t*/\n\tmapping (string => Purchase) purchases;\n\n\n\t/*\n\t\tコンストラクタ\n\t*/\n\tfunction MetaCoin() public {\n\t\towner = msg.sender;\n\t}\n\n\t/*\n\t\tコントラクトの作成者のみが使用できることを意味する修飾子\n\t*/\n\tmodifier onlyOwner{\n\t\trequire(msg.sender == owner);\n\t\t_;\n\t}\n\n\t/*\n\t\t購入履歴を追加\n\t*/\n\tfunction addPurchase(string purchaseUuid, address deviceWalletAddress) public {\n\t\tpurchases[purchaseUuid].deviceWalletAddress = deviceWalletAddress;\n\t}\n\n\t/*\n\t\t配信デバイスを追加\n\t*/\n\tfunction addDevice(address deviceWalletAddress) public {\n\n\t}\n\n\t/*\n\t\t配信許可かどうか\n\t\tとりあえずいつもOK\n\t*/\n\tfunction isBroadcastable(address addr) public constant returns(bool){\n\t\treturn true;\n\t}\n\t\n\n\tfunction verifyPurchase(string purchaseUuid, address walletAddress) public constant returns(bool){\n\t\tif( purchases[purchaseUuid].deviceWalletAddress == walletAddress ){\n\t\t\treturn true;\n\t\t}\n\t\treturn false;\n\t}\n\n\n}\n",
  "sourcePath": "/Users/kano-hideki/metacoin/contracts/MetaCoin.sol",
  "compiler": {
    "name": "solc",
    "version": "0.4.24+commit.e67f0147.Emscripten.clang"
  },
  "schemaVersion": "2.0.1",
  "updatedAt": "2018-09-06T08:27:21.202Z"
}