{
  "contractName": "MetaCoin",
  "abi": [
    {
      "inputs": [],
      "payable": false,
      "stateMutability": "nonpayable",
      "type": "constructor"
    },
    {
      "constant": false,
      "inputs": [],
      "name": "withdraw",
      "outputs": [],
      "payable": false,
      "stateMutability": "nonpayable",
      "type": "function"
    },
    {
      "constant": false,
      "inputs": [
        {
          "name": "to",
          "type": "address"
        },
        {
          "name": "uuid",
          "type": "string"
        }
      ],
      "name": "deposit",
      "outputs": [],
      "payable": true,
      "stateMutability": "payable",
      "type": "function"
    },
    {
      "constant": true,
      "inputs": [
        {
          "name": "addr",
          "type": "address"
        }
      ],
      "name": "getDepositedBalance",
      "outputs": [
        {
          "name": "",
          "type": "uint256"
        }
      ],
      "payable": false,
      "stateMutability": "view",
      "type": "function"
    },
    {
      "constant": false,
      "inputs": [
        {
          "name": "deviceWalletAddress",
          "type": "address"
        }
      ],
      "name": "addDevice",
      "outputs": [],
      "payable": false,
      "stateMutability": "nonpayable",
      "type": "function"
    },
    {
      "constant": true,
      "inputs": [
        {
          "name": "addr",
          "type": "address"
        }
      ],
      "name": "isBroadcastable",
      "outputs": [
        {
          "name": "",
          "type": "bool"
        }
      ],
      "payable": false,
      "stateMutability": "view",
      "type": "function"
    },
    {
      "constant": true,
      "inputs": [
        {
          "name": "purchaseUuid",
          "type": "string"
        },
        {
          "name": "walletAddress",
          "type": "address"
        }
      ],
      "name": "verifyPurchase",
      "outputs": [
        {
          "name": "",
          "type": "bool"
        }
      ],
      "payable": false,
      "stateMutability": "view",
      "type": "function"
    }
  ],
  "bytecode": "0x608060405234801561001057600080fd5b506105ce806100206000396000f300608060405260043610610078576000357c0100000000000000000000000000000000000000000000000000000000900463ffffffff1680632a973daf1461007d5780633ccfd60b146100d4578063473f5f79146100eb5780634818983f1461018c578063b111cb84146101e7578063b74825091461022a575b600080fd5b34801561008957600080fd5b506100be600480360381019080803573ffffffffffffffffffffffffffffffffffffffff1690602001909291905050506102a6565b6040518082815260200191505060405180910390f35b3480156100e057600080fd5b506100e96102ee565b005b3480156100f757600080fd5b50610172600480360381019080803590602001908201803590602001908080601f0160208091040260200160405190810160405280939291908181526020018383808284378201915050505050509192919290803573ffffffffffffffffffffffffffffffffffffffff1690602001909291905050506103bf565b604051808215151515815260200191505060405180910390f35b34801561019857600080fd5b506101cd600480360381019080803573ffffffffffffffffffffffffffffffffffffffff169060200190929190505050610497565b604051808215151515815260200191505060405180910390f35b3480156101f357600080fd5b50610228600480360381019080803573ffffffffffffffffffffffffffffffffffffffff1690602001909291905050506104a2565b005b6102a4600480360381019080803573ffffffffffffffffffffffffffffffffffffffff169060200190929190803590602001908201803590602001908080601f01602080910402602001604051908101604052809392919081815260200183838082843782019150505050505091929192905050506104a5565b005b60008060008373ffffffffffffffffffffffffffffffffffffffff1673ffffffffffffffffffffffffffffffffffffffff168152602001908152602001600020549050919050565b60008060003373ffffffffffffffffffffffffffffffffffffffff1673ffffffffffffffffffffffffffffffffffffffff16815260200190815260200160002054905060008060003373ffffffffffffffffffffffffffffffffffffffff1673ffffffffffffffffffffffffffffffffffffffff168152602001908152602001600020819055503373ffffffffffffffffffffffffffffffffffffffff166108fc829081150290604051600060405180830381858888f193505050501580156103bb573d6000803e3d6000fd5b5050565b60008173ffffffffffffffffffffffffffffffffffffffff166001846040518082805190602001908083835b60208310151561041057805182526020820191506020810190506020830392506103eb565b6001836020036101000a038019825116818451168082178552505050505050905001915050908152602001604051809103902060000160009054906101000a900473ffffffffffffffffffffffffffffffffffffffff1673ffffffffffffffffffffffffffffffffffffffff16141561048c5760019050610491565b600090505b92915050565b600060019050919050565b50565b346000808473ffffffffffffffffffffffffffffffffffffffff1673ffffffffffffffffffffffffffffffffffffffff16815260200190815260200160002060008282540192505081905550816001826040518082805190602001908083835b60208310151561052a5780518252602082019150602081019050602083039250610505565b6001836020036101000a038019825116818451168082178552505050505050905001915050908152602001604051809103902060000160006101000a81548173ffffffffffffffffffffffffffffffffffffffff021916908373ffffffffffffffffffffffffffffffffffffffff16021790555050505600a165627a7a72305820ef328cd20f39ce43a76424de18288623c6b1f825055416f597624996fd28af550029",
  "source": "pragma solidity ^0.4.18;\n\n// This is just a simple example of a coin-like contract.\n// It is not standards compatible and cannot be expected to talk to other\n// coin/token contracts. If you want to create a standards-compliant\n// token, see: https://github.com/ConsenSys/Tokens. Cheers!\n\ncontract MetaCoin {\n\t\n\n\t/*\n\t\tsharesに値が入っていれば引き出せる。\n\t\tお金はコントラクト上にshareとして持っておき、それをやりとりする\n\t*/\n    /// Mapping of ether shares of the contract.\n    mapping(address => uint) shares;\n    /// Withdraw your share.\n    function withdraw() public {\n        uint share = shares[msg.sender];\n        shares[msg.sender] = 0;\n        msg.sender.transfer(share);\n    }\n\tfunction deposit(address to, string uuid) public payable{\n\t\tshares[to] += msg.value;\n\t\tpurchases[uuid].deviceWalletAddress = to;\n\t}\n\n    function getDepositedBalance(address addr) public view returns(uint){\n        return shares[addr];\n    }\n    \n    function MetaCoin() public{\n        \n    }\n  \n\n\t/*\n\t\t動画を許可しているかどうか\n\t\tkey: ユーザのウォレットアドレス＋ラズパイのUUID\n\t\tvalue: アクセスできるかどうか\n\t*/\n\tstruct BroadcastStatus{\n\t\tbool owner; // dmmがブロードキャストを許可している\n\t\tbool user; // userがブロードキャストを許可している\n\t}\n\n\tstruct Purchase{\n\t\taddress deviceWalletAddress; \n\t}\n\n\n\t/*\n\t\t購入履歴データ\n\t\t購入UUIDを紐づける\n\t*/\n\tmapping (string => Purchase) purchases;\n\n\n\n\n\n\t/*\n\t\t配信デバイスを追加\n\t*/\n\tfunction addDevice(address deviceWalletAddress) public {\n\n\t}\n\n\t/*\n\t\t配信許可かどうか\n\t\tとりあえずいつもOK\n\t*/\n\tfunction isBroadcastable(address addr) public constant returns(bool){\n\t\treturn true;\n\t}\n\n\n\tfunction verifyPurchase(string purchaseUuid, address walletAddress) public constant returns(bool){\n\t\tif( purchases[purchaseUuid].deviceWalletAddress == walletAddress ){\n\t\t\treturn true;\n\t\t}\n\t\treturn false;\n\t}\n\n\n}\n",
  "sourcePath": "/Users/kano-hideki/internproj/metacoin/contracts/MetaCoin.sol",
  "compiler": {
    "name": "solc",
    "version": "0.4.24+commit.e67f0147.Emscripten.clang"
  },
  "schemaVersion": "2.0.1",
  "updatedAt": "2018-09-11T09:19:57.571Z"
}