{
  "contractName": "MetaCoin",
  "abi": [
    {
      "inputs": [],
      "payable": false,
      "stateMutability": "nonpayable",
      "type": "constructor"
    },
    {
      "anonymous": false,
      "inputs": [
        {
          "indexed": true,
          "name": "_from",
          "type": "address"
        },
        {
          "indexed": true,
          "name": "_to",
          "type": "address"
        },
        {
          "indexed": false,
          "name": "_value",
          "type": "uint256"
        }
      ],
      "name": "Transfer",
      "type": "event"
    },
    {
      "constant": false,
      "inputs": [
        {
          "name": "receiver",
          "type": "address"
        },
        {
          "name": "amount",
          "type": "uint256"
        }
      ],
      "name": "sendCoin",
      "outputs": [
        {
          "name": "sufficient",
          "type": "bool"
        }
      ],
      "payable": false,
      "stateMutability": "nonpayable",
      "type": "function"
    },
    {
      "constant": true,
      "inputs": [
        {
          "name": "addr",
          "type": "address"
        }
      ],
      "name": "getBalance",
      "outputs": [
        {
          "name": "",
          "type": "uint256"
        }
      ],
      "payable": false,
      "stateMutability": "view",
      "type": "function"
    },
    {
      "constant": false,
      "inputs": [
        {
          "name": "purchaseUuid",
          "type": "string"
        },
        {
          "name": "deviceWalletAddress",
          "type": "address"
        }
      ],
      "name": "addPurchase",
      "outputs": [],
      "payable": false,
      "stateMutability": "nonpayable",
      "type": "function"
    },
    {
      "constant": false,
      "inputs": [
        {
          "name": "deviceWalletAddress",
          "type": "address"
        }
      ],
      "name": "addDevice",
      "outputs": [],
      "payable": false,
      "stateMutability": "nonpayable",
      "type": "function"
    },
    {
      "constant": true,
      "inputs": [
        {
          "name": "addr",
          "type": "address"
        }
      ],
      "name": "isBroadcastable",
      "outputs": [
        {
          "name": "",
          "type": "bool"
        }
      ],
      "payable": false,
      "stateMutability": "view",
      "type": "function"
    },
    {
      "constant": true,
      "inputs": [
        {
          "name": "purchaseUuid",
          "type": "string"
        },
        {
          "name": "walletAddress",
          "type": "address"
        }
      ],
      "name": "verifyPurchase",
      "outputs": [
        {
          "name": "",
          "type": "bool"
        }
      ],
      "payable": false,
      "stateMutability": "view",
      "type": "function"
    }
  ],
  "bytecode": "0x608060405234801561001057600080fd5b5033600160006101000a81548173ffffffffffffffffffffffffffffffffffffffff021916908373ffffffffffffffffffffffffffffffffffffffff1602179055506127106000803273ffffffffffffffffffffffffffffffffffffffff1673ffffffffffffffffffffffffffffffffffffffff16815260200190815260200160002081905550610665806100a66000396000f300608060405260043610610078576000357c0100000000000000000000000000000000000000000000000000000000900463ffffffff168063473f5f791461007d5780634818983f1461011e5780637d5820551461017957806390b98a1114610202578063b111cb8414610267578063f8b2cb4f146102aa575b600080fd5b34801561008957600080fd5b50610104600480360381019080803590602001908201803590602001908080601f0160208091040260200160405190810160405280939291908181526020018383808284378201915050505050509192919290803573ffffffffffffffffffffffffffffffffffffffff169060200190929190505050610301565b604051808215151515815260200191505060405180910390f35b34801561012a57600080fd5b5061015f600480360381019080803573ffffffffffffffffffffffffffffffffffffffff1690602001909291905050506103d9565b604051808215151515815260200191505060405180910390f35b34801561018557600080fd5b50610200600480360381019080803590602001908201803590602001908080601f0160208091040260200160405190810160405280939291908181526020018383808284378201915050505050509192919290803573ffffffffffffffffffffffffffffffffffffffff1690602001909291905050506103e4565b005b34801561020e57600080fd5b5061024d600480360381019080803573ffffffffffffffffffffffffffffffffffffffff16906020019092919080359060200190929190505050610495565b604051808215151515815260200191505060405180910390f35b34801561027357600080fd5b506102a8600480360381019080803573ffffffffffffffffffffffffffffffffffffffff1690602001909291905050506105ee565b005b3480156102b657600080fd5b506102eb600480360381019080803573ffffffffffffffffffffffffffffffffffffffff1690602001909291905050506105f1565b6040518082815260200191505060405180910390f35b60008173ffffffffffffffffffffffffffffffffffffffff166002846040518082805190602001908083835b602083101515610352578051825260208201915060208101905060208303925061032d565b6001836020036101000a038019825116818451168082178552505050505050905001915050908152602001604051809103902060000160009054906101000a900473ffffffffffffffffffffffffffffffffffffffff1673ffffffffffffffffffffffffffffffffffffffff1614156103ce57600190506103d3565b600090505b92915050565b600060019050919050565b806002836040518082805190602001908083835b60208310151561041d57805182526020820191506020810190506020830392506103f8565b6001836020036101000a038019825116818451168082178552505050505050905001915050908152602001604051809103902060000160006101000a81548173ffffffffffffffffffffffffffffffffffffffff021916908373ffffffffffffffffffffffffffffffffffffffff1602179055505050565b6000816000803373ffffffffffffffffffffffffffffffffffffffff1673ffffffffffffffffffffffffffffffffffffffff1681526020019081526020016000205410156104e657600090506105e8565b816000803373ffffffffffffffffffffffffffffffffffffffff1673ffffffffffffffffffffffffffffffffffffffff16815260200190815260200160002060008282540392505081905550816000808573ffffffffffffffffffffffffffffffffffffffff1673ffffffffffffffffffffffffffffffffffffffff168152602001908152602001600020600082825401925050819055508273ffffffffffffffffffffffffffffffffffffffff163373ffffffffffffffffffffffffffffffffffffffff167fddf252ad1be2c89b69c2b068fc378daa952ba7f163c4a11628f55a4df523b3ef846040518082815260200191505060405180910390a3600190505b92915050565b50565b60008060008373ffffffffffffffffffffffffffffffffffffffff1673ffffffffffffffffffffffffffffffffffffffff1681526020019081526020016000205490509190505600a165627a7a72305820e7eb2657677f2699474515b71becc9f60b82443d05f1bae3765ea248c398cba50029",
  "source": "pragma solidity ^0.4.18;\n\n// This is just a simple example of a coin-like contract.\n// It is not standards compatible and cannot be expected to talk to other\n// coin/token contracts. If you want to create a standards-compliant\n// token, see: https://github.com/ConsenSys/Tokens. Cheers!\n\ncontract MetaCoin {\n\t\n\tmapping (address => uint) balances;\n\tevent Transfer(address indexed _from, address indexed _to, uint256 _value);\n\n\tfunction sendCoin(address receiver, uint amount) public returns(bool sufficient){\n\t\tif( balances[msg.sender] < amount ) return false;\n\t\tbalances[msg.sender] -= amount;\n\t\tbalances[receiver] += amount;\n\t\tTransfer(msg.sender, receiver, amount);\n\t\treturn true;\n\t}\n\n\tfunction getBalance(address addr) public view returns(uint){\n\t\treturn balances[addr];\n\t}\n\n\n\t//\tコントラクトを作成したアカウントのアドレス\n\taddress owner;\n\n\t/*\n\t\t動画を許可しているかどうか\n\t\tkey: ユーザのウォレットアドレス＋ラズパイのUUID\n\t\tvalue: アクセスできるかどうか\n\t*/\n\tstruct BroadcastStatus{\n\t\tbool owner; // dmmがブロードキャストを許可している\n\t\tbool user; // userがブロードキャストを許可している\n\t}\n\n\tstruct Purchase{\n\t\taddress deviceWalletAddress; \n\t}\n\n\n\n\t/*\n\t\t購入履歴データ\n\t\t購入UUIDを紐づける\n\t*/\n\tmapping (string => Purchase) purchases;\n\n\n\t/*\n\t\tコンストラクタ\n\t*/\n\tfunction MetaCoin() public {\n\t\towner = msg.sender;\n\t\tbalances[tx.origin] = 10000;\n\t}\n\n\t/*\n\t\tコントラクトの作成者のみが使用できることを意味する修飾子\n\t*/\n\tmodifier onlyOwner{\n\t\trequire(msg.sender == owner);\n\t\t_;\n\t}\n\n\t/*\n\t\t購入履歴を追加\n\t*/\n\tfunction addPurchase(string purchaseUuid, address deviceWalletAddress) public {\n\t\tpurchases[purchaseUuid].deviceWalletAddress = deviceWalletAddress;\n\t}\n\n\t/*\n\t\t配信デバイスを追加\n\t*/\n\tfunction addDevice(address deviceWalletAddress) public {\n\n\t}\n\n\t/*\n\t\t配信許可かどうか\n\t\tとりあえずいつもOK\n\t*/\n\tfunction isBroadcastable(address addr) public constant returns(bool){\n\t\treturn true;\n\t}\n\n\n\tfunction verifyPurchase(string purchaseUuid, address walletAddress) public constant returns(bool){\n\t\tif( purchases[purchaseUuid].deviceWalletAddress == walletAddress ){\n\t\t\treturn true;\n\t\t}\n\t\treturn false;\n\t}\n\n\n}\n",
  "sourcePath": "/Users/kano-hideki/internproj/metacoin/contracts/MetaCoin.sol",
  "compiler": {
    "name": "solc",
    "version": "0.4.24+commit.e67f0147.Emscripten.clang"
  },
  "schemaVersion": "2.0.1",
  "updatedAt": "2018-09-07T07:39:32.680Z"
}